:1000000043EF05F0505245434950495441444F5243
:100010000000454C454354524F5354415449434FBB
:1000200000004A5020494E474C4F42414C0020208E
:1000300056454C4F43494441443A20286D2F73297B
:10004000202000002020202020202020302E3030B2
:100050002020202020202020000054454E53494FCE
:100060004E20505245434950495441444F5200009C
:100070002020202020202020302E3020206B5620D1
:10008000202020200000202056454C4F4349444169
:10009000443A20286D2F73292020000054454E53E8
:1000A000494F4E20505245434950495441444F52C4
:1000B00000002025312E3166206B562020200000C4
:1000C000EA6A470EE96EEF500EE00F0E016E006A0D
:1000D000002EFED7012EFBD78F0E006E002EFED70E
:1000E0000000EF2EF2D7000C000E956EFF0E936EFF
:1000F000838C0000838E000081CF4DF0839E9F0E85
:10010000006E002EFED700D0000E936E4DC001F0A1
:100110008FEF00F0000E956E936E839AE5D701C0C5
:100120004DF001BEFBD74BA0839A4BB0838A0000F1
:10013000839C0000839E4CC081FF0000838E070ECD
:10014000006E002EFED700D0839E9F0E006E002E04
:10015000FED700D0000C000E956E936E839E839C9C
:10016000839A0F0E476EACDF396A3950020809E3F3
:100170004B6A380E4C6ECEDF050E476EA1DF392A72
:10018000F4D74B6A0C0E4C6EC5DF4B6A060E4C6EF4
:10019000C1DF4B6A010E4C6EBDDF4B6A020E4C6E26
:1001A000B9DF046A87EF05F0496A48C004F0475296
:1001B00003E1010E476E00D0485222E0482C06D0E1
:1001C000800E496E010E475C49261AD0485002083D
:1001D00006E1400E496E010E475C492611D0485099
:1001E000030806E1140E496E010E475C492608D04B
:1001F0004850040805E1540E496E010E475C49263B
:10020000495080094A6E4B6A4C6E84DF000C4650A0
:100210000C0A05E0060A0BE0020A1CE020D04B6A3B
:10022000010E4C6E77DF020E476E4ADF1ED0042AA5
:100230000450000803E30450040806E3010E476E6F
:1002400004C048F0B1DF05D0046A010E476E486E65
:10025000ABDF0BD04B6A100E4C6E5CDF06D0010E8C
:100260004B6E46C04CF056DF00D0000C0900F55232
:100270000CE0F6CF39F0F7CF3AF0F5CF46F0C7DF14
:1002800039C0F6FF3AC0F7FFF1D7000C3934006EE1
:100290000036FC0E001600C001F0C250C30B001067
:1002A000C26E640E476E0CDFC282C2B2FED7C4CFEC
:1002B00003F0C3CF3AF0C4CF3BF03AC001F03BC0EB
:1002C00002F0000C8E0E006E3AC001F039C002F050
:1002D000036A015209E102C001F0026A080E005EE1
:1002E000015202E1006A08D0D89001BE04D0023663
:1002F00001360006F9D7019E000C800ED8B2401AD4
:10030000456A466A3CC044F04050441A3B50D8B459
:10031000DCD0436E006E3F50D8B4E0D0435ED8B41A
:1003200081D03DE340C049F0498E41C048F042C011
:1003300047F0466AD8904932483247324632432E17
:10034000F8D744AE03D04580DDD045904390458832
:10035000EA6A3E0EE96EE9D0459844BE0AD043A051
:1003600013D04932483247324632002AD8B4C5D079
:100370000BD049BE0CD0D890463647364836493661
:100380000006D8B4BAD0F5D7458C6BD0459C3CC09C
:1003900044F03CAE02D0498EA9D0499EA7D03FC0C0
:1003A00043F03FC000F03B50435E3CC049F0498EF3
:1003B0003DC048F03EC047F0466AD89049324832C6
:1003C00047324632432EF8D744AE03D045829AD006
:1003D00045924390458AEA6A420EE96EA6D0459A54
:1003E00044BE0AD043A013D0493248324732463285
:1003F000002AD8B482D00BD049BE0CD0D890463653
:100400004736483649360006D8B477D0F5D7458EFA
:1004100028D0459E40C044F040AE02D0498E66D000
:10042000499E64D040C049F0498E41C048F042C066
:1004300047F044AE04D0499E458464D04594466A52
:100440004390EA6A3E0EE96E70D044BE1CD03CC0B8
:1004500044F043A006D04932483247324632002A9F
:100460004CE046AE0BD0472A09E1482A07E1492A69
:1004700005E1493248324732002A3FE045BC86D781
:1004800045BEC7D71CD0800E491A49AE04D03AD019
:1004900040C044F00AD03CC044F0495206E1485202
:1004A00004E1475202E1006A21D049BE08D0D89049
:1004B0004636473648364936002EF7D71ED044AE6A
:1004C00002D0498E13D0499E11D03FC000F040C0E9
:1004D00049F041C048F042C047F008D03BC000F0AE
:1004E0003CC049F03DC048F03EC047F049C001F073
:1004F00048C002F047C003F034D0006A016A026AC3
:10050000036A2FD0466A471E481E491E461E462AC9
:1005100005E1472A03E1482A01E1492A45B015D7F8
:1005200045B256D745B48AD7B3D7EF50472605E32F
:10053000482A03E1492AD8B44380ED52EF504826B7
:1005400003E3492AD8B44380ED52EF50EFBE01D007
:10055000800A4926D8B0438045B8FED645BA3FD771
:1005600074D7000C3D50D8B4A5D0496E4150D8B4D2
:10057000A1D0495E05E37F0E4926D8B09BD006D0B6
:10058000810E495ED8A096D0D8B494D049C000F06E
:10059000016A026A036A486A3EC047F0478E3FC05C
:1005A00046F040C045F0190E496E4450455E0DE2DC
:1005B000010E465E0AE2475E08E2485E06E2482A0D
:1005C000472A462A4450452628D04350465E12E228
:1005D000010E475E0FE2485E0DE2482A472A43506B
:1005E00046264450452619E3462A17E1472A15E1D5
:1005F000482A13D042508009475E0EE2010E485E41
:100600000BE2482A42508009472643504626E9E338
:10061000472AE7E1482AE5D70380492E01D00BD0CD
:10062000D8904536463647364836D8900336023697
:1006300001364A36BAD74AA006D0D89001320232E3
:1006400003324A3202D0000635E04ABE1ED0D890AE
:1006500045364636473648364450455E07E2010E79
:10066000465E04E2475E02E2485E1AE34350465E9D
:1006700005E2010E475E02E2485E12E34250800945
:10068000475E03E2010E485E0BE3032A09E1022AFA
:1006900007E1012A05E1002A0DE0013202320332AE
:1006A0003EC049F04250491A49AE02D0018E06D0F0
:1006B000019E04D0006A016A026A036A000C3AC013
:1006C00041F03E50411A41AE05D0D894D8903ABE80
:1006D000D8802FD03AC041F03DC042F03950425E40
:1006E00006E041AE26D0D850010AD86E22D03EC0D6
:1006F00042F03A50425E06E041AE1BD0D850010AAB
:10070000D86E17D03FC042F03B50425E06E041AE8B
:1007100010D0D850010AD86E0CD040C042F03C50E6
:10072000425E06E041AE05D0D850010AD86E01D035
:10073000D89052EF06F04650D8B471D0006E4A50AF
:10074000D8B46DD0002604E3810E002668E204D000
:100750007F0E005E64E363E047C04EF04B504E1ADC
:10076000478E4B8E49504D02F4CF50F048504C020A
:10077000F4CF03F0F3CF4FF04D02F3505026F45076
:100780004F22000E032249504C02F3505026F450E1
:100790004F22000E026A0322022247504D02F350FC
:1007A0004F26F4500322000E022247504C02F35011
:1007B0000326F4500222000E016A012249504B0226
:1007C000F3504F26F4500322000E0222012248501B
:1007D0004B02F3500326F4500222000E0122475030
:1007E0004B02F3500226F4500122002A01BE05D02C
:1007F0004F360336023601360006000E4FAE0AD0E1
:10080000032A02220122015005E1025003E10350B4
:1008100001E1002A4EBE018E4EAE019E04D0006A58
:10082000016A026A036A000C4650B608466E036A03
:1008300047C04AF0478ED890473248324932033297
:10084000023201320032462EF6D74AAE0BD0001EDD
:10085000011E021E031E002AD8B4012AD8B4022A9F
:10086000D8B4032A98EF04F0006A016A026A036AA6
:100870004E6A4F6A506A516A4D504C104B104A10E4
:100880002CE0200E526ED890463647364836493610
:100890004E364F36503651364D50515C08E14C5073
:1008A000505C05E14B504F5C02E14A504E5C0FE357
:1008B0004A504E5E4B50D8A04B3C4F5E4C50D8A097
:1008C0004C3C505E4D50D8A04D3C515ED880003617
:1008D000013602360336522ED6D7EA6A4E0EE96E3C
:1008E000000CE9503E6E3D50406E19E03CC049F0AE
:1008F0003BC048F03AC047F039C046F04D6A4C6AF8
:10090000200E4B6E820E4A6E16DF03C03CF002C012
:100910003BF001C03AF000C039F0402EE7D73CC0B0
:1009200049F03BC048F03AC047F039C046F07CD7A8
:1009300003C03CF002C03BF001C03AF000C039F007
:100940003CAE0DD03E063E8A391E3A1E3B1E3C1E72
:10095000392AD8B43A2AD8B43B2AD8B43C2A3B0E18
:10096000456E9A0E446ECA0E436E426A0A0E406E7F
:100970003D50D8B43E2A3CC049F03BC048F03AC094
:1009800047F039C046F045C04DF044C04CF043C07C
:100990004BF042C04AF068DF0150EFCF39F0ECCFA6
:1009A0003AF0ECCF3BF0ECCF3CF000520FE13D28A9
:1009B000405C0CE03E500CE00F0B405C01E039E283
:1009C0003EBE37D03EBC04D0200E2ED0200E3E16A8
:1009D0003EAA0CD03E9A3D50D8A43E0600503E6E32
:1009E0002D0E466E14DC3E50006E3E6A3D50405C5B
:1009F0000AE100503E6E2E0E466E09DC3E50006E3F
:100A0000200E3E16000E300E3EAA0ED03E9A3D50ED
:100A1000D8A43E0600503E6E2D0E466E07EC01F047
:100A20003E50006E3E6A300E002600C046F007ECD5
:100A300001F045C049F044C048F043C047F042C00F
:100A400046F04D6A4C6A4B6A0A0E4A6E0DDF03C0CF
:100A500045F002C044F001C043F000C042F0402E17
:100A60008AD7000C0900F6CF3AF0F7CF3BF0F5CF6C
:100A700046F007EC01F03AC0F6FF3BC0F7FF392E15
:100A8000F1D76CEF07F0F86AD09EEA6AE96A086A63
:100A9000076A066A056A0C6A0B6A0A6A096A250E01
:100AA000106E060E0F6E190E0E6E810E0D6E146A0C
:100AB000136A126A116A156A166A186A176AC150AF
:100AC000C00B0F09C16E070EB46E196A1A6A1B6A51
:100AD0001C6A1D6A1E6A1F6A206A216A226A236ACA
:100AE000246A256A266A276A286A296A2A6A2B6A7A
:100AF0002C6A2D6A2E6A2F6A306A316A326A336A2A
:100B0000346A356A366A376A386AABEF00F04B6A86
:100B1000010E4C6E8AEC00F0050E476E010E486E19
:100B2000D4EC00F0040EF66E000EF76E36EC01F019
:100B3000040E476E020E486ED4EC00F0120EF66EF4
:100B4000000EF76E36EC01F0050E476E040E486E8F
:100B5000D4EC00F0220EF66E000EF76E36EC01F0CB
:100B60000C0E396EFA0E476E60EC00F0392EFAD793
:100B7000080E396EFA0E476E60EC00F0392EFAD787
:100B8000080E396EFA0E476E60EC00F0392EFAD777
:100B90004B6A010E4C6E8AEC00F0010E476E486EF7
:100BA000D4EC00F02E0EF66E000EF76E36EC01F06F
:100BB000010E476E020E486ED4EC00F0440EF66E45
:100BC000000EF76E36EC01F0010E476E030E486E14
:100BD000D4EC00F05A0EF66E000EF76E36EC01F013
:100BE000010E476E040E486ED4EC00F0700EF66EE7
:100BF000000EF76E36EC01F0C090C082C084C08E4B
:100C0000C280C150C00BC16E396A46EC01F002C00F
:100C100018F001C017F018C03AF017C039F062ECB4
:100C200001F0D88203C03EF002C03DF001C03CF0AC
:100C300000C03BF01C0E426EDB0E416E220E406E79
:100C4000860E3F6E7DEC01F000C039F001C03AF035
:100C500002C03BF003C03CF003C040F002C03FF0D4
:100C600001C03EF000C03DF0FE0E446EA50E436E86
:100C7000260E426E840E416E75DC03C008F002C081
:100C800007F001C006F000C005F008C03CF007C046
:100C90003BF006C03AF005C039F0406A3F6A3E6A50
:100CA0003D6A0DD501E204E1086A076A066A056A31
:100CB0001550070801E2156A1550040DF350036A38
:100CC000190FE96E000E0320EA6E05C0EFFF06C0A3
:100CD000ECFF07C0ECFF08C0ECFF152A166A16509F
:100CE000070836E31650040DF350036A190FE96E36
:100CF000000E0320EA6EEFCF00F0ECCF01F0ECCF56
:100D000002F0ECCF03F0EACF3AF0E9CF39F0D89215
:100D100014C03EF013C03DF012C03CF011C03BF0D7
:100D200003C042F002C041F001C040F000C03FF0FB
:100D30007DEC01F03AC0EAFF39C0E9FF03C014F0CE
:100D400002C013F001C012F000C011F0162AC7D77C
:100D500014C040F013C03FF012C03EF011C03DF08F
:100D6000446A436A426A820E416EB2EC02F003C0EA
:100D700014F002C013F001C012F000C011F0010E17
:100D8000396E46EC01F002C003F001C039F002C038
:100D90003AF062EC01F0496A486A200E476E810E13
:100DA000466E03C04DF002C04CF001C04BF000C0D5
:100DB0004AF0C1DC00C039F001C03AF002C03BF09B
:100DC00003C03CF003C040F002C03FF001C03EF061
:100DD00000C03DF0446AC00E436E7F0E426E880E26
:100DE000416EB2EC02F000C039F001C03AF002C02E
:100DF0003BF003C03CF003C049F002C048F001C022
:100E000047F000C046F010C04DF00FC04CF00EC0CF
:100E10004BF00DC04AF08FDC03C00CF002C00BF0A9
:100E200001C00AF000C009F0010E476E486ED4EC14
:100E300000F0860EF66E000EF76E36EC01F0080E2E
:100E4000476E020E486ED4EC00F0200E466E07ECA2
:100E500001F0890EE96E14C03CF013C03BF012C0E3
:100E60003AF011C039F0010E3D6E3BDD200E466EAA
:100E700007EC01F0200E466E07EC01F0200E466EE6
:100E800007EC01F0010E476E030E486ED4EC00F043
:100E90009C0EF66E000EF76E36EC01F0080E476EF3
:100EA000040E486ED4EC00F0200E466E07EC01F004
:100EB000890EE96E0CC03CF00BC03BF00AC03AF062
:100EC00009C039F0010E3D6E0CDDB80EF66E000E55
:100ED000F76E060E396EC6D5040E396EFA0E476EE1
:0E0EE00060EC00F0392EFAD78FD68ED60300C4
:020000040030CA
:0E00000020CE3E1E008781000FC00FE00F4093
:00000001FF
;PIC18F4550
;CRC=5208  CREATED="10-jul-14 13:43"
